:04000000BEEF3FF020
:107F7C000001C7EF3FF0016EACA2FED701C0ADFF10
:107F8C001200948C948E240EAC6E900EAB6E190E67
:107F9C00AF6E080EB86EAE509E9A480EC1EC3FF014
:107FAC006F0EC1EC3FF06C0EC1EC3FF0610EC1ECFA
:107FBC003FF0200EC1EC3FF06D0EC1EC3FF0750EA2
:107FCC00C1EC3FF06E0EC1EC3FF0640EC1EC3FF023
:107FDC006F0EC1EC3FF00A0EC1EC3FF0020E036EC7
:107FEC00450E026EAA0EE82EFED7022EFCD7032EEB
:047FFC00FAD7D3D706
:020000040020DA
:08000000FFFFFFFFFFFFFFFF00
:020000040030CA
:0E00000000285F3CFFD385FF0FC00FE00F40CC
:00000001FF
